:100000000C9430000C943C040C9465040C948E0405
:100010000C9481050C9481050C9481050C94810548
:100020000C9481050C9481050C9481050C94810538
:100030000C94B7040C9481050C9481050C948105F3
:100040000C9481050C9481050C9481050C94810518
:100050000C94810500600070000B10007000788027
:1000600011241FBECFE5D8E0DEBFCDBFE4E5F0E050
:1000700040E017C0B591A59135912591059107FDF7
:100080000CC095918591EF01F92FE82F05900D9205
:10009000A217B307D9F7FE0104C01D92A217B30738
:1000A000E1F7E036F40731F70E940C010C94720579
:0400B000F894FFCFF2
:1000B400456E746572207468726573686F6C643A17
:1000C400006C696768742070657263656E7461673B
:0300D400653A008A
:1000D800AF92BF92CF92DF92EF92FF920F931F934E
:1000E800CF93DF93CDB7DEB769970FB6F894DEBF2D
:1000F8000FBECDBF80E1E0E6F0E0DE011296019090
:100108000D928A95E1F795E09A8B84E08B8B83E0DA
:100118008C8B22E02D8B27E02E8B26E02F8B988F5F
:10012800898F00E010E00DC0E2E1F0E0EC0FFD1F68
:10013800E00FF11F41E0608182E00E941F020F5F23
:100148001F4F0430110584F3B12C4CC0CB2CD12C9B
:10015800E2E1F0E0EC0FFD1FEC0DFD1DA08040E09A
:100168006A2D82E00E941F0210E034C0E12EF12CBB
:10017800E6E1F0E0EC0FFD1FEE0DFF1D0081AE0182
:100188004F5F5F4F602F83E00E94D8038981811100
:1001980020C08FE39FE10197F1F700C0000007C07E
:1001A800AE014F5F5F4F602F83E00E94D8038981C3
:1001B8008823B1F3CC0CDD1CCC0CDD1C81E090E075
:1001C8008C0F9D1FC80ED91EF601EE0DFF1D8181F3
:1001D8000EC01F5F143050F241E06A2D82E00E9489
:1001E8001F02B39493E09B1508F0B0CF80E06996A6
:1001F8000FB6F894DEBF0FBECDBFDF91CF911F9130
:100208000F91FF90EF90DF90CF90BF90AF9008953F
:10021800CF93DF93CDB7DEB7A7970FB6F894DEBFBD
:100228000FBECDBF1C821B820E9458050E949003FE
:1002380081E00E940C040E947D0560E080E00E943D
:100248001B0524EB30E040E081E1F901DE0157961F
:10025800742F0E946505CE0147960E944B0510E059
:100268000FC00E946C00082F882351F00E94F002F2
:10027800E3E0F0E0EC0FFD1FE10FF11D00831F5FCD
:10028800123078F38B8190E0C0979C01220F331FC6
:10029800880F991F880F991F880F991F820F931F26
:1002A8000C8110E000531109080F191FBE016F5F80
:1002B8007F4F80E00E94020529813A81ADECBCECB9
:1002C8000E943C057C01F694E794F694E794F69432
:1002D800E79460E081E00E941B0525EC30E040E0F7
:1002E80082E1F901DE011596742F0E946505CE01A1
:1002F80005960E944B05B70180E090E00E944103FB
:1003080085E20E94F0020E151F0530F440E060E01F
:1003180082E00E941F0205C041E060E082E00E9486
:100328001F022FEF83ED90E3215080409040E1F7CA
:0603380000C0000080CFB0
:10033E00813031F138F0823009F440C0833009F455
:10034E005AC00895683008F072C0413059F42AB38B
:10035E0081E090E002C0880F991F6A95E2F7822B28
:10036E008ABB0895411163C02AB381E090E002C0B8
:10037E00880F991F6A95E2F7809582238ABB0895AC
:10038E00683008F054C0413059F427B381E090E052
:10039E0002C0880F991F6A95E2F7822B87BB0895DA
:1003AE00411145C027B381E090E002C0880F991F2C
:1003BE006A95E2F78095822387BB08956830B8F579
:1003CE00413059F424B381E090E002C0880F991FA8
:1003DE006A95E2F7822B84BB0895411128C024B39D
:1003EE0081E090E002C0880F991F6A95E2F7809530
:1003FE00822384BB08956830D0F4413059F421B380
:10040E0081E090E002C0880F991F6A95E2F7822B77
:10041E0081BB089541110BC021B381E090E002C071
:10042E00880F991F6A95E2F78095822381BB089504
:10043E00813031F138F0823009F440C0833009F454
:10044E005AC00895683008F072C0413059F42BB389
:10045E0081E090E002C0880F991F6A95E2F7822B27
:10046E008BBB0895411163C02BB381E090E002C0B5
:10047E00880F991F6A95E2F7809582238BBB0895AA
:10048E00683008F054C0413059F428B381E090E050
:10049E0002C0880F991F6A95E2F7822B88BB0895D8
:1004AE00411145C028B381E090E002C0880F991F2A
:1004BE006A95E2F78095822388BB08956830B8F577
:1004CE00413059F425B381E090E002C0880F991FA6
:1004DE006A95E2F7822B85BB0895411128C025B39A
:1004EE0081E090E002C0880F991F6A95E2F780952F
:1004FE00822385BB08956830D0F4413059F422B37D
:10050E0081E090E002C0880F991F6A95E2F7822B76
:10051E0082BB089541110BC022B381E090E002C06E
:10052E00880F991F6A95E2F78095822382BB089502
:10053E00CF93C82F40E063E080E00E941F024C2F53
:10054E00441F4427441F64E081E00E941F02C6FB43
:10055E00442740F962E081E00E941F02C5FB442758
:10056E0040F961E081E00E941F02C4FB442740F97C
:10057E0060E081E00E941F020E942D058FE193E052
:10058E000197F1F700C00000C3FB442740F964E077
:10059E0081E00E941F02C2FB442740F962E081E025
:1005AE000E941F02C1FB442740F961E081E00E94D6
:1005BE001F024C2F417060E081E00E941F020E94DA
:1005CE002D058FE39FE10197F1F700C00000CF9159
:0205DE0008957E
:1005E000CF93C82F41E063E080E00E941F024C2FB0
:1005F000441F4427441F64E081E00E941F02C6FBA1
:10060000442740F962E081E00E941F02C5FB4427B5
:1006100040F961E081E00E941F02C4FB442740F9D9
:1006200060E081E00E941F020E942D058FE193E0AF
:100630000197F1F700C00000C3FB442740F964E0D4
:1006400081E00E941F02C2FB442740F962E081E082
:100650000E941F02C1FB442740F961E081E00E9433
:100660001F024C2F417060E081E00E941F020E9437
:100670002D058FE39FE10197F1F700C00000CF91B6
:020680000895DB
:100682001F93CF93DF93CDB7DEB72A970FB6F894B7
:10069200DEBF0FBECDBFFE0131962AE0DF011D9203
:1006A2002A95E9F76115710581059105C1F480E389
:1006B2000E94F0022AC02AE030E040E050E00E94AE
:1006C200E004E1E0F0E0EC0FFD1FE10FF11D605DE1
:1006D2006083622F732F842F952F1F5F01C010E05C
:1006E200611571058105910531F70DC0E12FF0E02B
:1006F200319781E090E08C0F9D1FE80FF91F8081F8
:100702000E94F00211501111F1CF2A960FB6F894FF
:0E071200DEBF0FBECDBFDF91CF911F910895C6
:1007200041E063E080E00E949F0141E062E080E000
:100730000E949F0141E060E081E00E949F0141E052
:1007400061E081E00E949F0141E062E081E00E945F
:100750009F0141E064E081E00E949F0182E00E94ED
:100760009F022FE785EB91E0215080409040E1F718
:1007700000C0000088E20E949F028FE99FE001977D
:10078000F1F700C000008EE00E949F028FE99FE019
:100790000197F1F700C000000E947D058FE39FE103
:1007A0000197F1F700C0000086E00E949F020895C3
:1007B000813089F028F08230C9F0833011F108953A
:1007C00089B390E002C0959587956A95E2F78170AC
:1007D000FA018083089586B390E002C095958795CD
:1007E0006A95E2F78170FA018083089583B390E0FF
:1007F00002C0959587956A95E2F78170FA0180832A
:10080000089580B390E002C0959587956A95E2F7C8
:080810008170FA018083089554
:10081800813091F018F0823041F014C087B18F77A1
:1008280087B987B18F7B87B90DC087B1806887B9D1
:1008380087B1806487B906C087B18F7787B987B1D8
:10084800806487B987B18F7D87B986B1846086B99E
:1008580086B1826086B986B1816086B986B18F7D9E
:1008680086B986B1877F86B986B1806886B90895CA
:100878001F920F920FB60F9211242F933F934F930D
:100888005F936F937F938F939F93AF93BF93EF93F0
:10089800FF93E0917400F0917500309709F0099585
:1008A800FF91EF91BF91AF919F918F917F916F9140
:1008B8005F914F913F912F910F900FBE0F901F9016
:0208C800189581
:1008CA001F920F920FB60F9211242F933F934F93BB
:1008DA005F936F937F938F939F93AF93BF93EF939E
:1008EA00FF93E0917200F0917300309709F0099537
:1008FA00FF91EF91BF91AF919F918F917F916F91EE
:10090A005F914F913F912F910F900FBE0F901F90C3
:02091A0018952E
:10091C001F920F920FB60F9211242F933F934F9368
:10092C005F936F937F938F939F93AF93BF93EF934B
:10093C00FF93E0917000F0917100309709F00995E8
:10094C00FF91EF91BF91AF919F918F917F916F919B
:10095C005F914F913F912F910F900FBE0F901F9071
:02096C001895DC
:10096E001F920F920FB60F9211242F933F934F9316
:10097E005F936F937F938F939F93AF93BF93EF93F9
:10098E00FF93E0917600F0917700309709F009958A
:10099E00FF91EF91BF91AF919F918F917F916F9149
:1009AE005F914F913F912F910F900FBE0F901F901F
:0209BE0018958A
:1009C000A1E21A2EAA1BBB1BFD010DC0AA1FBB1F53
:1009D000EE1FFF1FA217B307E407F50720F0A21BC5
:1009E000B30BE40BF50B661F771F881F991F1A9432
:1009F00069F760957095809590959B01AC01BD015C
:040A0000CF01089585
:100A040061157105A9F0803298F497B1907E97B979
:100A140097B1892B87B986B1806486B9349BFECFA0
:100A240086B1806186B984B195B1FB0191838083DD
:020A3400089523
:100A3600811107C0603168F480E8860F0E949F022A
:100A46000895813031F4603120F480EC860F0E94E5
:040A56009F0208955E
:100A5A0041E062E080E00E941F0285E08A95F1F79A
:0E0A6A00000040E062E080E00E941F0208955C
:100A7800A29FB001B39FC001A39F700D811D1124D7
:0E0A8800911DB29F700D811D1124911D0895C6
:100A9600CF93DF93EC0103C021960E94F002888178
:0A0AA6008111FACFDF91CF9108957E
:100AB0001ABA80E287BB8DE384BB11BA1BBA18BA9D
:0A0AC0008CE385BB88EE82BB08952D
:100ACA00992777FD05C005900D920197E1F70895E2
:0A0ADA0001900D920197E1F70895D5
:100AE400EC010E9486050E948505CE010E948705BF
:060AF400CE010E94830503
:080AFA0081E00E949F020895B3
:040B02000C9400004F
:040B06000E945800F1
:020B0A0008954C
:020B0C0008954A
:020B0E00089548
:100B10003738392F3435362A3132332D2E303D2BAC
:00000001FF
