:100000000C9430000C94FA060C9423070C944C07C3
:100010000C940D090C940D090C940D090C940D0908
:100020000C940D090C940D090C9440040C94970445
:100030000C9475070C940D090C940D090C940D0982
:100040000C940D090C940D090C940D090C940D09D8
:100050000C940D090060007000122800700086806A
:1000600011241FBECFE5D8E0DEBFCDBFE4E5F0E050
:1000700040E017C0B591A59135912591059107FDF7
:100080000CC095918591EF01F92FE82F05900D9205
:10009000A217B307D9F7FE0104C01D92A217B30738
:1000A000E1F7E036F40731F70E9475000C94B708C9
:0400B000F894FFCFF2
:1000B4003132333400456E74657220506173737746
:1000C4006F72643A0054727920416761696E3A0034
:1000D40057656C636F6D65004E4F57204D6F7265A9
:0500E4002054727900B8
:1000EA00CF93DF93CDB7DEB7A2970FB6F894DEBFF2
:1000FA000FBECDBFFE01319685E0DF011D928A95C4
:10010A00E9F70E948F080E94DC050E94CC0810E0E3
:10011A00FE01319685E0DF011D928A95E9F70E947A
:10012A00FB0860E080E00E945D0829EB30E040E0D7
:10013A0080E1F901DE011696742F0E94AA08CE0109
:10014A0006960E949D08F12C40C00E946001182F5B
:10015A008823C1F08AE20E943B0581E0800FE1E03A
:10016A00F0E0EC0FFD1FE00FF11D1083BFEF21EE51
:10017A0034E0B15020403040E1F700C00000082FC1
:10018A0001C000E0043008F3BE016F5F7F4F80E8D2
:10019A0024EB30E040E00E942908892BD1F00E942C
:1001AA00FB0860E080E00E945D0829EC30E040E056
:1001BA008BE0F901DE015696742F0E94AA08CE013F
:1001CA0046960E949D08F39410E082E08F15C8F6C7
:1001DA0001C011E0113009F03FC00E94FB0860E045
:1001EA0080E00E945D0824ED30E040E088E0F901FB
:1001FA00DE015696742F0E94AA08CE0146960E94E6
:10020A009D0864EB70E080E090E00E94C2079FEFD7
:10021A00A3EDB0E39150A040B040E1F700C0000068
:10022A000E9407092FEF33ED80E3215030408040D0
:10023A00E1F700C0000060E070E0CB010E94C20755
:10024A009FEFA3EDB0E39150A040B040E1F700C0AA
:10025A0000000E94070925C00E94FB0860E080E0B8
:10026A000E945D082CED30E040E08DE0F901DE01EE
:10027A005696742F0E94AA08CE0146960E949D089F
:10028A0065E081E00E94610666E080E00E94610606
:10029A002FEF33ED80E3215030408040E1F700C07A
:1002AA0000009FEFA3EDB0E39150A040B040E1F70A
:0602BA0000C000002DCF82
:1002C000AF92BF92CF92DF92EF92FF920F931F9364
:1002D000CF93DF93CDB7DEB769970FB6F894DEBF43
:1002E0000FBECDBF80E1E0E6F0E0DE0112960190A6
:1002F0000D928A95E1F785E08A8B94E09B8B83E0F1
:100300008C8B22E02D8B27E02E8B26E02F8B988F75
:10031000898F00E010E00DC0E2E1F0E0EC0FFD1F7E
:10032000E00FF11F41E0608182E00E9480020F5FD8
:100330001F4F0430110584F3B12C4CC0CB2CD12CB1
:10034000E2E1F0E0EC0FFD1FEC0DFD1DA08040E0B0
:100350006A2D82E00E94800210E034C0E12EF12C70
:10036000E6E1F0E0EC0FFD1FEE0DFF1D0081AE0198
:100370004F5F5F4F602F83E00E9497068981811154
:1003800020C08FE39FE10197F1F700C0000007C094
:10039000AE014F5F5F4F602F83E00E949706898117
:1003A0008823B1F3CC0CDD1CCC0CDD1C81E090E08B
:1003B0008C0F9D1FC80ED91EF601EE0DFF1D818109
:1003C0000EC01F5F143050F241E06A2D82E00E949F
:1003D0008002B39493E09B1508F0B0CF80E069965B
:1003E0000FB6F894DEBF0FBECDBFDF91CF911F9146
:1003F0000F91FF90EF90DF90CF90BF90AF90089556
:10040000813031F138F0823009F440C0833009F492
:100410005AC00895683008F072C0413059F42AB3C8
:1004200081E090E002C0880F991F6A95E2F7822B65
:100430008ABB0895411163C02AB381E090E002C0F5
:10044000880F991F6A95E2F7809582238ABB0895E9
:10045000683008F054C0413059F427B381E090E08F
:1004600002C0880F991F6A95E2F7822B87BB089517
:10047000411145C027B381E090E002C0880F991F69
:100480006A95E2F78095822387BB08956830B8F5B6
:10049000413059F424B381E090E002C0880F991FE5
:1004A0006A95E2F7822B84BB0895411128C024B3DA
:1004B00081E090E002C0880F991F6A95E2F780956D
:1004C000822384BB08956830D0F4413059F421B3BD
:1004D00081E090E002C0880F991F6A95E2F7822BB5
:1004E00081BB089541110BC021B381E090E002C0AF
:1004F000880F991F6A95E2F78095822381BB089542
:10050000813031F138F0823009F440C0833009F491
:100510005AC00895683008F072C0413059F42BB3C6
:1005200081E090E002C0880F991F6A95E2F7822B64
:100530008BBB0895411163C02BB381E090E002C0F2
:10054000880F991F6A95E2F7809582238BBB0895E7
:10055000683008F054C0413059F428B381E090E08D
:1005600002C0880F991F6A95E2F7822B88BB089515
:10057000411145C028B381E090E002C0880F991F67
:100580006A95E2F78095822388BB08956830B8F5B4
:10059000413059F425B381E090E002C0880F991FE3
:1005A0006A95E2F7822B85BB0895411128C025B3D7
:1005B00081E090E002C0880F991F6A95E2F780956C
:1005C000822385BB08956830D0F4413059F422B3BA
:1005D00081E090E002C0880F991F6A95E2F7822BB4
:1005E00082BB089541110BC022B381E090E002C0AC
:1005F000880F991F6A95E2F78095822382BB089540
:1006000010C00E94E20858F00E94DB0840F029F474
:100610005F3F29F00C94F00851110C94EA080C94F7
:100620000A090E94E50768F39923B1F3552391F372
:10063000951B550BBB27AA2762177307840738F051
:100640009F5F5F4F220F331F441FAA1FA9F335D0AE
:100650000E2E3AF0E0E832D091505040E695001C62
:10066000CAF72BD0FE2F29D0660F771F881FBB1F1C
:10067000261737074807AB07B0E809F0BB0B802DFA
:10068000BF01FF2793585F4F3AF09E3F510578F026
:100690000C94F0080C94EA085F3FE4F3983ED4F31E
:1006A000869577956795B795F7959F5FC9F7880FFA
:1006B000911D9695879597F90895E1E0660F771F4C
:1006C000881FBB1F621773078407BA0720F0621BDD
:0E06D000730B840BBA0BEE1F88F7E0950895AC
:1006DE000FC00E94DB0838F00E94E20820F095233C
:1006EE0011F00C94F0080C940A0911240C94EA08E9
:1006FE000E94E50770F3959FC1F3950F50E0551FCB
:10070E00629FF001729FBB27F00DB11D639FAA2758
:10071E00F00DB11DAA1F649F6627B00DA11D661FA7
:10072E00829F2227B00DA11D621F739FB00DA11DC8
:10073E00621F839FA00D611D221F749F3327A00D82
:10074E00611D231F849F600D211D822F762F6A2F1E
:10075E0011249F5750409AF0F1F088234AF0EE0F83
:10076E00FF1FBB1F661F771F881F91505040A9F7B0
:10077E009E3F510580F00C94F0080C94EA085F3F00
:10078E00E4F3983ED4F3869577956795B795F795EC
:10079E00E7959F5FC1F7FE2B880F911D9695879564
:0407AE0097F908951A
:1007B20011C00E94DB0838F00E94E20820F039F4F0
:1007C2009F3F19F426F40C940A090EF4E095E7FB16
:1007D2000C94F008E92F0E94E50758F3BA17620754
:1007E20073078407950720F079F4A6F50C94E908BD
:1007F2000EF4E0950B2EBA2FA02D0B01B90190013A
:100802000C01CA01A0011124FF27591B99F0593F7D
:1008120050F4503E68F11A16F040A22F232F342FC5
:100822004427585FF3CF469537952795A795F04013
:100832005395C9F77EF41F16BA0B620B730B840B28
:10084200BAF09150A1F0FF0FBB1F661F771F881FE0
:10085200C2F70EC0BA0F621F731F841F48F4879538
:1008620077956795B795F7959E3F08F0B0CF93952A
:0E087200880F08F09927EE0F97958795089547
:100880001F920F920FB60F9211242F933F934F9305
:100890005F936F937F938F939F93AF93BF93EF93E8
:1008A000FF938091740090917500A0917600B091B3
:1008B00077000196A11DB11D80937400909375007F
:1008C000A0937600B0937700809180009091810092
:1008D000A0E0B0E040917400509175006091760006
:1008E0007091770084179507A607B70779F4E09110
:1008F0008200F0918300309709F0099510927400FE
:10090000109275001092760010927700FF91EF918F
:10091000BF91AF919F918F917F916F915F914F9117
:0E0920003F912F910F900FBE0F901F901895D2
:10092E001F920F920FB60F9211242F933F934F9356
:10093E005F936F937F938F939F93AF93BF93EF9339
:10094E00FF938091700090917100A0917200B09110
:10095E0073000196A11DB11D8093700090937100DC
:10096E00A0937200B093730080917000909171000B
:10097E00A0917200B0917300823A9740A105B10523
:10098E0089F480EE82BFE0918400F091850030976B
:10099E0009F0099510927000109271001092720079
:1009AE0010927300FF91EF91BF91AF919F918F9134
:1009BE007F916F915F914F913F912F910F900FBE4D
:0609CE000F901F90189528
:1009D400CF93C82F40E063E080E00E9480024C2F58
:1009E400441F4427441F64E081E00E948002C6FB48
:1009F400442740F962E081E00E948002C5FB44275D
:100A040040F961E081E00E948002C4FB442740F980
:100A140060E081E00E9480020E9480088FE193E000
:100A24000197F1F700C00000C3FB442740F964E0DC
:100A340081E00E948002C2FB442740F962E081E029
:100A44000E948002C1FB442740F961E081E00E94DA
:100A540080024C2F417060E081E00E9480020E947D
:100A640080088FE39FE10197F1F700C00000CF9168
:020A74000895E3
:100A7600CF93C82F41E063E080E00E9480024C2FB4
:100A8600441F4427441F64E081E00E948002C6FBA5
:100A9600442740F962E081E00E948002C5FB4427BA
:100AA60040F961E081E00E948002C4FB442740F9DE
:100AB60060E081E00E9480020E9480088FE193E05E
:100AC6000197F1F700C00000C3FB442740F964E03A
:100AD60081E00E948002C2FB442740F962E081E087
:100AE6000E948002C1FB442740F961E081E00E9438
:100AF60080024C2F417060E081E00E9480020E94DB
:100B060080088FE39FE10197F1F700C00000CF91C5
:020B1600089540
:100B18008F929F92AF92BF92CF92DF92EF92FF9205
:100B28004B015C0169017A0120E030E048EC52E4B5
:100B3800C701B6010E94F60818168CF160E970ED3D
:100B480083E090E0A50194010E9407082150310933
:100B580037BD26BD66B577B56F5F7F4F80E090E003
:100B68000E942406A70196010E94030920E030E0B4
:100B780048EC52E40E94FF0820E030E040E85FE3E0
:100B88000E94D4080E94CB067BBD6ABD8EB58160E9
:100B98008EBD8EB582608EBD8EB58B7F8EBDFF906B
:100BA800EF90DF90CF90BF90AF909F908F90089577
:100BB80041E063E080E00E94000241E062E080E002
:100BC8000E94000241E060E081E00E94000241E0F2
:100BD80061E081E00E94000241E062E081E00E9461
:100BE800000241E064E081E00E94000282E00E948D
:100BF800EA042FE785EB91E0215080409040E1F72F
:100C080000C0000088E20E94EA048FE99FE0019793
:100C1800F1F700C000008EE00E94EA048FE99FE02F
:100C28000197F1F700C000000E94FB088FE39FE1E5
:100C38000197F1F700C0000086E00E94EA040895D9
:100C4800E89409C097FB3EF490958095709561955E
:100C58007F4F8F4F9F4F9923A9F0F92F96E9BB2714
:100C68009395F695879577956795B795F111F8CF90
:100C7800FAF4BB0F11F460FF1BC06F5F7F4F8F4FFB
:100C88009F4F16C0882311F096E911C0772321F0F1
:100C98009EE8872F762F05C0662371F096E8862F89
:100CA80070E060E02AF09A95660F771F881FDAF7E0
:0A0CB800880F9695879597F9089527
:100CC200683098F5813089F028F08230C9F083309D
:100CD20011F108952BB381E090E002C0880F991FB3
:100CE2006A95E2F782278BBB089528B381E090E0F2
:100CF20002C0880F991F6A95E2F7822788BB089580
:100D020025B381E090E002C0880F991F6A95E2F74F
:100D1200822785BB089522B381E090E002C0880F4C
:0C0D2200991F6A95E2F7822782BB0895B2
:100D2E00813089F028F08230C9F0833011F10895B6
:100D3E0089B390E002C0959587956A95E2F7817028
:100D4E00FA018083089586B390E002C09595879549
:100D5E006A95E2F78170FA018083089583B390E07B
:100D6E0002C0959587956A95E2F78170FA018083A6
:100D7E00089580B390E002C0959587956A95E2F745
:080D8E008170FA0180830895D1
:100D96000E94ED0788F09F5798F0B92F9927B75111
:100DA600B0F0E1F0660F771F881F991F1AF0BA9509
:100DB600C9F714C0B13091F00E94E908B1E0089576
:100DC6000C94E908672F782F8827B85F39F0B93F68
:100DD600CCF3869577956795B395D9F73EF49095BC
:0E0DE6008095709561957F4F8F4F9F4F0895B8
:100DF4001F920F920FB60F9211242F933F934F938C
:100E04005F936F937F938F939F93AF93BF93EF936E
:100E1400FF93E0917C00F0917D00309709F00995F3
:100E2400FF91EF91BF91AF919F918F917F916F91BE
:100E34005F914F913F912F910F900FBE0F901F9094
:020E44001895FF
:100E46001F920F920FB60F9211242F933F934F9339
:100E56005F936F937F938F939F93AF93BF93EF931C
:100E6600FF93E0917A00F0917B00309709F00995A5
:100E7600FF91EF91BF91AF919F918F917F916F916C
:100E86005F914F913F912F910F900FBE0F901F9042
:020E96001895AD
:100E98001F920F920FB60F9211242F933F934F93E7
:100EA8005F936F937F938F939F93AF93BF93EF93CA
:100EB800FF93E0917800F0917900309709F0099557
:100EC800FF91EF91BF91AF919F918F917F916F911A
:100ED8005F914F913F912F910F900FBE0F901F90F0
:020EE80018955B
:100EEA001F920F920FB60F9211242F933F934F9395
:100EFA005F936F937F938F939F93AF93BF93EF9378
:100F0A00FF93E0917E00F0917F00309709F00995F8
:100F1A00FF91EF91BF91AF919F918F917F916F91C7
:100F2A005F914F913F912F910F900FBE0F901F909D
:020F3A00189508
:100F3C00990F0008550FAA0BE0E8FEEF16161706DE
:100F4C00E807F907C0F012161306E407F50798F046
:100F5C00621B730B840B950B39F40A2661F0232B5F
:100F6C00242B252B21F408950A2609F4A140A695DB
:080F7C008FEF811D811D089516
:100F84000E94240620E030E044EB52E40E94D5089D
:100F940020E030E044E353E40E94FF0820E030E026
:100FA40040EA50E40E94030920E030E040EA50E4C3
:100FB4000E94D5089B01AC0162E370E080E090E000
:060FC4000E948C05089557
:100FCA0057FD9058440F551F59F05F3F71F04795F0
:100FDA00880F97FB991F61F09F3F79F087950895D5
:100FEA00121613061406551FF2CF4695F1DF08C0F4
:100FFA00161617061806991FF1CF86957105610511
:04100A0008940895A9
:10100E00A1E21A2EAA1BBB1BFD010DC0AA1FBB1FFE
:10101E00EE1FFF1FA217B307E407F50720F0A21B70
:10102E00B30BE40BF50B661F771F881F991F1A94DD
:10103E0069F760957095809590959B01AC01BD0107
:04104E00CF01089531
:10105200CF92DF92EF926B01E82EF6018491E7FCCA
:101062008081F901549147FD508185130BC088237B
:1010720041F08FEFC81AD80AE80A2F5F3F4F4F4F4F
:10108200ECCF582F90E0851B9109EF90DF90CF9025
:021092000895BF
:101094008FB58E7F8FBD8FB582608FBD8EB5886012
:1010A4008EBD8EB580618EBD8FB58F7B8FBD8FB5A4
:0610B40080688FBD089565
:1010BA00811107C0603168F480E8860F0E94EA0453
:1010CA000895813031F4603120F480EC860F0E945B
:0410DA00EA04089587
:1010DE00092E0394000C11F4882352F0BB0F40F438
:1010EE00BF2B11F460FF04C06F5F7F4F8F4F9F4F78
:0210FE00089553
:1011000041E062E080E00E94800285E08A95F1F78C
:0E111000000040E062E080E00E94800208954E
:10111E0080E48ABB80E287BB9DE794BB81BB1BBA90
:0C112E0018BA8CE385BB88EF82BB0895E3
:10113A00CF93DF93EC0103C021960E943B0588817F
:0A114A008111FACFDF91CF910895D3
:10115400992777FD05C005900D920197E1F7089551
:0A11640001900D920197E1F7089544
:10116E00EC010E9412090E941109CE010E9413097E
:06117E00CE010E940F09E2
:101184008EB58E7F8EBD8EB58D7F8EBD8EB58B7FD9
:041194008EBD08956F
:1011980041E065E083E00E9400020E944A08089549
:0E11A8005058BB27AA270E94D9030C946F0849
:0E11B60000240A941616170618060906089556
:0E11C40000240A941216130614060506089558
:0E11D200E894BB2766277727CB0197F908958D
:0C11E00097F99F6780E870E060E00895D8
:0A11EC000E949E0708F481E00895B8
:0811F60081E00E94EA04089563
:0811FE000E9400030C946F082D
:081206000E946F030C946F08B5
:06120E000E94C2080895D1
:061214009FEF80EC08953D
:04121A000C94000030
:04121E000E945800D2
:0212220008952D
:0212240008952B
:02122600089529
:101228003738392F3435362A3132332D2E303D2B8D
:00000001FF
